:100000000C9434000C945D000C945D000C945D0025
:100010000C945D000C945D000C9478010C945D00D0
:100020000C945D000C945D000C945D000C94A90789
:100030000C945D000C945D000C9409070C945D0019
:100040000C945D000C945D000C945D000C945D00BC
:100050000C945D000C945D000C945D000C94CB0737
:100060000C945D000C945D0011241FBECFEFD8E00E
:10007000DEBFCDBF14BE0FB6F894A8958091600086
:10008000886180936000109260000FBE11E0A0E0D4
:10009000B1E0E8E5FCE102C005900D92AC30B1079B
:1000A000D9F721E0ACE0B1E001C01D92AE36B20755
:1000B000E1F70E940C0B0C942A0E0C94000008959A
:1000C0008AE580936D0183E00E9485070E94FB0210
:1000D00060E080916D010C94F602089590E080E05C
:1000E000089508955F926F927F928F929F92AF9240
:1000F000BF92CF92DF92EF92FF920F931F93CF9315
:10010000DF93F89414B817B81AB815B818B81BB814
:10011000529A5A9A14BC85E085BD8FEF87BD82E064
:1001200080936E0010928000109281002FE83BE0D7
:10013000309389002093880080936F005398239810
:1001400091EA9093B0008093B1001092B4001092A5
:10015000B3008BE080BF83E080937F0086E08093D4
:100160007C0083E880937A0080917A008064809399
:100170007A0080917A0086FDFCCF10927C0083EAA1
:1001800080937A0081E080937B0081E090E00E9480
:10019000C00D8F3F11F08093660010923701C1E0CF
:1001A000C0931001C093540110922E011092680167
:1001B00080E990E00E94C00D80932D0180912D0177
:1001C000887311F0C0932D011092580110925701BD
:1001D0008FEF90E090935601809355011092330178
:1001E00010923401109235011092360181E0809313
:1001F0000F0182E49FE0909367018093660180EB9A
:1002000090E00E94C00DC82F81EB90E00E94C00DCD
:10021000982F8C2F90936A018093690185E090E07C
:100220000E94C00D80936D0189E090E00E94C00D96
:10023000809359018CE090E00E94C00D80936B0187
:1002400084E190E00E94C00D80936C0101E111E017
:1002500084E5882E81E0982EC8E3D1E080E290E02A
:100260009C0128533140390181E290E0FC01E853C0
:10027000F1405F018EE490E09C0128533140690118
:100280008FE490E0FC01E853F1407F01C3018C0F43
:100290009D1F0E94C00D582EC5018C0F9D1F0E94EE
:1002A000C00D952D89939993C6018C0F9D1F0E94B7
:1002B000C00D582EC7018C0F9D1F0E94C00D952D9B
:1002C000F801819391938F018C169D06F9F678942D
:1002D000DF91CF911F910F91FF90EF90DF90CF9022
:1002E000BF90AF909F908F907F906F905F90089598
:1002F0001F920F920FB60F9211248F930FB6F8949E
:10030000A8958091600088618093600010926000E1
:100310000FBE8F910F900FBE0F901F9018953C014C
:10032000EB0110E099249A9484E0C82E96E0A92E5F
:1003300023E8B22E38E1D32E49E2E42EE0910F01FA
:10034000E730E0F7F0E0E955FE4F0C942B0B00028C
:10035000E401B801AE01B5015E025302111102C001
:10036000F3010995C0920F0111E0FE010995E6CF56
:1003700080913701811103C1F894A0927C00B09262
:100380007A0080917A00806480937A0080917A006C
:1003900086FDFCCF809178009091790078948B3A1B
:1003A000E2E09E070CF0E4C08938F2E09F070CF011
:1003B000EDC0873692400CF4E2C0559A549A3B9AAD
:1003C0003A9A3D983C98BACF559854983B9A3A9AA5
:1003D0003D983C98EFECF7E03197F1F700C0000052
:1003E000559854983B983A983D983C98FFEF21EEE9
:1003F00084E0F15020408040E1F700C000009ECF33
:10040000F89480B7877F80BF80917A008F77809340
:100410007A0014B817B81AB815B818B81BB80FB6C0
:10042000F894A895D09260000FBEE0926000809191
:10043000600080648093600083B7817F846083BFA5
:10044000F89483B7816083BF7894889583B78E7F53
:1004500083BF789410923701529A5A9A80917A0009
:10046000806880937A0087E592E00197F1F700C0F9
:10047000000080B7886180BF559A549A3B9A3A9A97
:100480003D9A3C9AEFE1FEE43197F1F700C000009D
:100490008091370181115CC0559854983B983A98E7
:1004A0003D983C984BCF80910D01811125C0109251
:1004B000B3001092B40010920E0140CF4899ECCFD7
:1004C000559A54983B983A983D983C988FEC97E011
:1004D0000197F1F700C00000559854983B983A985E
:1004E0003D983C989FEFE1EEF4E09150E040F04001
:1004F000E1F700C0000022CF90910D0180910E0124
:10050000981709F41BCF80910D0180930E01809103
:100510000D01813009F441C080910D011092B300AA
:100520009092B400823009F449C09092B300909246
:10053000B4008FE295E70197F1F700C000008091C9
:100540006C0190916B019093B3008093B400F6CE50
:10055000559A549A3B983A983D983C98FFEF20E77B
:1005600082E0F15020408040E1F700C0000094CFCD
:10057000559854983B9A3A9A3D983C98DFCE559AB4
:10058000549A3B983A983D983C98D8CE55985498B0
:100590003B983A983D9A3C9AD1CE9092B3001092F3
:1005A000B4008FE295E70197F1F700C00000809159
:1005B0006D018093B3001092B400C0CEEFE2F5E776
:1005C0003197F1F700C00000809159011092B300FB
:1005D0008093B400B3CE07C0EFECF7E03197F1F7AA
:1005E00000C0000001970097B9F708958093B30009
:1005F0006093B40008958FEF8093B3008093B400AC
:100600008FEC97E00197F1F700C000008FEC97E0C6
:100610000197F1F700C000008FEC97E00197F1F728
:1006200000C000008FEC97E00197F1F700C00000D8
:100630008FEC97E00197F1F700C000008FEC97E096
:100640000197F1F700C000008FEC97E00197F1F7F8
:1006500000C000008FEC97E00197F1F700C00000A8
:100660008FEC97E00197F1F700C000008FEC97E066
:100670000197F1F700C000008FEC97E00197F1F7C8
:1006800000C000008FEC97E00197F1F700C0000078
:100690008FEC97E00197F1F700C000008FEC97E036
:1006A0000197F1F700C000008FEC97E00197F1F798
:1006B00000C0000008958091370181111EC0F89498
:1006C00087E080937C0083E880937A0080917A00B1
:1006D000806480937A0080917A0086FDFCCF8091BF
:1006E00078009091790010927C0023EA20937A00A0
:1006F00021E020937B00789408958FEF9FEF089579
:100700008091370181111EC0F89488EC80937C00A1
:1007100087E880937A0080917A00806480937A00E1
:1007200080917A0086FDFCCF8091780090917900CD
:1007300010927C0023EA20937A0021E020937B0032
:10074000789408958FEF9FEF08950F931F93CF93A1
:10075000DF93F0E0E0E080E006E013E8D3EAC1E0F8
:10076000A1E0B0E060E870E0F89400937C001093A2
:100770007A0090917A00906490937A0090917A0038
:1007800096FDFCCF209178003091790021709091F6
:100790007A00906490937A0090917A0096FDFCCF55
:1007A000409178005091790010927C00D0937A00AB
:1007B000C0937B0078944170241303C06150710989
:1007C00099F6222339F09D010E2E01C0220F0A94C2
:1007D000EAF7822B3196E830F10509F0C3CFDF91BB
:1007E000CF911F910F91089520910001822F880FC2
:1007F000880F880F282790910C0181E0890F809342
:100800000C01822F82958695877082279695969502
:1008100089278093000108958093000108958091B5
:100820003701811116C0F89486E080937C0083E83C
:1008300080937A0080917A00806480937A0080911E
:100840007A0086FDFCCF80917800909179007894B1
:1008500008958FEF9FEF08952F923F924F925F92EE
:100860006F927F928F929F92AF92BF92CF92DF92C0
:10087000EF92FF920F931F93CF93DF9300D000D09E
:1008800000D0CDB7DEB78C01DC0112960D90BC9183
:10089000A02DBE83AD83A438E3E0BE070CF477C07F
:1008A000DC01ED90FC9080913801909139018E151A
:1008B0009F0508F4B0C122242A9400913A011091B6
:1008C0003B010E151F0508F4E0C100913C01109199
:1008D0003D010E151F0508F43CC200913E01109128
:1008E0003F010E151F0508F43DC200914001109113
:1008F00041010E151F0508F43EC2009142011091FE
:1009000043010E151F0508F43BC2009144011091EC
:1009100045010E151F0508F440C2009146011091D3
:1009200047010E151F0508F43DC2009148011091C2
:1009300049010E151F0508F442C200914A011091A9
:100940004B010E151F0508F43FC200914C01109198
:100950004D010E151F0508F444C200914E0110917F
:100960004F010E151F0508F441C20091500110916E
:1009700051010E151F0508F442C200915201109159
:1009800053010E151F0508F43FC21AE5DFC0FD0133
:1009900080911101909112018A179B0708F426C1DA
:1009A00060901301709014016A167B0608F4CDC1A3
:1009B00060901501709016016A167B0608F4CEC18E
:1009C00060901701709018016A167B0608F459C1EF
:1009D0006090190170901A016A167B0608F4C7C16D
:1009E00060901B0170901C016A167B0608F4CDC153
:1009F00060901D0170901E016A167B0608F4C9C143
:100A000060901F01709020016A167B0608F4CFC128
:100A100060902101709022016A167B0608F4CBC118
:100A200060902301709024016A167B0608F4D1C1FE
:100A300060902501709026016A167B0608F4CDC1EE
:100A400060902701709028016A167B0608F4D3C1D4
:100A50006090290170902A016A167B0608F4F5C09F
:100A600060902B0170902C016DE08DE090E06A1693
:100A70007B0608F4EDC080E090E0A0EDB0E489834F
:100A80009A83AB83BC832CE0E22EF12CF701EE0FAE
:100A9000FF1FEF5EFE4F80819181B301681B790BD0
:100AA00090E080E00E94690C9B01AC010E94550B14
:100AB0006B017C01AD81BE81BD01BB0F880B990B21
:100AC0000E946B0C4B015C01B30190E080E00E943E
:100AD000690C2B013C0129813A814B815C81C70162
:100AE000B6010E94F70C9B01AC01C301B2010E9448
:100AF000540B9B01AC01C501B4010E94540B20E0D2
:100B000030E040E251E40E94F70C0E94330C5B019C
:100B1000C701B6010E94330CAB01C501BA010E94A6
:100B2000170B262EED81FE8181E2860FED3BF24010
:100B30000CF472C0D801ED90FC9080913801909136
:100B400039018E159F0508F0B8CE10E0BFEF81E2A5
:100B5000810F2B1609F460C0622D70E090E080E0F8
:100B60000E94690C4B015C01612F70E090E080E015
:100B70000E94690C2B013C01ED81FE81BF01FF0F3A
:100B8000880B990B0E946B0C6B017C01AC019B01E3
:100B900060E070E081E694E40E94540BA5019401AA
:100BA0000E94F70C4B015C0120E030E04FE254E47E
:100BB000C701B6010E94540BA30192010E94F70CD9
:100BC0009B01AC01C501B4010E94550B20E030E04F
:100BD00048E453E40E94C10B20E030E044E052E4DA
:100BE0000E94550B0E943A0C862F16C0AD3BB240B6
:100BF00094F0D801ED90FC908091380190913901EA
:100C0000212C8E159F0508F058CE412C512C320115
:100C100053014201B3CF81E226960FB6F894DEBFAE
:100C20000FBECDBFDF91CF911F910F91FF90EF903D
:100C3000DF90CF90BF90AF909F908F907F906F90FC
:100C40005F904F903F902F9008956CE08CE090E083
:100C50007C01F1E0EF1AF10870E090E080E00E9482
:100C6000690C20E030E040E05FE30E94F70C20E0F8
:100C700030E0A9010E94550B69837A838B839C83A2
:100C800005CF63E083E090E0E3CF33243394E1E0E9
:100C9000F0E0EE0FFF1FEA5CFE4F80819181B8010A
:100CA000681B790B90E080E00E94690C9B01AC010D
:100CB0000E94550B4B015C01B701FF0C880B990B8F
:100CC0000E946B0C2B013C01B80190E080E00E9477
:100CD000690C6B017C01632D70E090E080E00E9464
:100CE000690C20E030E040E05FE30E94F70C20E078
:100CF00030E0A9010E94550BA50194010E94F70C58
:100D00009B01AC01C701B6010E94540B9B01AC01D1
:100D1000C301B2010E94540B20E030E040E251E4F4
:100D20000E94F70C0E94330C8B01C501B4010E9494
:100D3000330CAB01C801BA010E94170B162F6F3F8D
:100D400009F004CF81E2820D67CF61E081E090E09D
:100D50007FCF82E0382EE2E0F0E09BCF62E082E0DD
:100D600090E076CFB3E03B2EE3E0F0E092CF64E09A
:100D700084E090E06DCFA4E03A2EE4E0F0E089CF8B
:100D8000F5E03F2EE5E0F0E084CF65E085E090E01F
:100D90005FCF66E086E090E05BCFE6E03E2EE6E0E7
:100DA000F0E077CF77E0372EE7E0F0E072CF67E052
:100DB00087E090E04DCF68E088E090E049CF68E0C0
:100DC000362EE8E0F0E065CF59E0352EE9E0F0E0BE
:100DD00060CF69E089E090E03BCF6AE08AE090E094
:100DE00037CF4AE0342EEAE0F0E053CF3BE0332E39
:100DF000EBE0F0E04ECF6BE08BE090E029CF2CE011
:100E0000322EECE0F0E045CF9DE0392EEDE0F0E051
:100E100040CF1F920F920FB60F9211242F933F9342
:100E20004F935F936F937F938F939F93AF93BF93F2
:100E3000EF93FF93809157019091580120915501B4
:100E400030915601820F931F909358018093570160
:100E50008FEF90E090935601809355018FEF87BDFF
:100E60008091330190913401A0913501B091360108
:100E70000196A11DB11D8093330190933401A0937D
:100E80003501B093360180913701811123C08091E3
:100E900066019091670120915701309158018217A6
:100EA0009307C0F480910F018430A1F4E091030115
:100EB000F09104010995009769F00E94890A88233E
:100EC000D1F0E0910101F0910201099510925801D1
:100ED00010925701FF91EF91BF91AF919F918F9128
:100EE0007F916F915F914F913F912F910F900FBE26
:100EF0000F901F9018950E94B00D9C0133273093DE
:100F000056012093550187BDE5CF80FF11C0559A4A
:100F100081FF11C0549A82FF11C03B9A83FF11C018
:100F20003A9A84FF11C03D9A85FD11C03C980895FE
:100F3000559881FDEFCF549882FDEFCF3B9883FD0C
:100F4000EFCF3A9884FDEFCF3D9885FFEFCF3C9AE5
:100F500008951F920F920FB60F9211248F939F93B3
:100F600010928100109285001092840081E080939D
:100F70001001809354011092370110927C0093EA83
:100F800090937A0080937B009F918F910F900FBE7A
:100F90000F901F9018951F920F920FB60F92112469
:100FA0002F933F934F935F936F937F938F939F9371
:100FB000AF93BF93CF93DF93EF93FF932091840080
:100FC0003091850041E040933701809110018823E2
:100FD000A9F1109285001092840040938100109234
:100FE000680110921001809154018823A1F0809132
:100FF0007A0086FDFCCF80917800909179009093E3
:1010000032018093310181E080937C0093EA9093D8
:101010007A0080937B00FF91EF91DF91CF91BF9198
:10102000AF919F918F917F916F915F914F913F9180
:101030002F910F900FBE0F901F901895C9018758E0
:1010400091098437994008F043C026583109A4EF2C
:10105000B0E00E94310BAA27BB27883008F46FC08C
:101060004093100180915401811146C080912E015E
:10107000E82FF0E0E65AFE4F9091680190838F5F71
:1010800080932E018C3039F61092810010928500E9
:10109000109284004093540110923701C091640172
:1010A000D09165018AE591E00E94D009C817D9075F
:1010B00009F0B1CFE0916301E7FD52C0E091050175
:1010C000F09106016FE271E08AE591E00995A3CF06
:1010D00010928100109285001092840040931001BC
:1010E000409354011092370110927C0083EA809360
:1010F0007A0040937B008FCF80917A0086FDFCCFF1
:1011000080917800909179009093300180932F0125
:1011100010927C0083EA80937A0081E080937B00C8
:10112000909168019923B9F0109281001092850086
:101130001092840080935401109237016CCF21E00B
:1011400030E001C0220F8A95EAF780916801822B76
:101150008093680160CF1092540110922E015BCFF2
:1011600098E79E0F933030F0539823981092B40074
:101170001092B300E058EB3008F04DCFF0E0ED53A3
:10118000F74F0C942B0BCE080B080B089D099A09FE
:1011900096099209B409A009FD08D70880916E004C
:1011A0008D7F80936E0016BCE0E0F0E7099580919A
:1011B0005A01823009F49EC008F085C0882309F4E2
:1011C00047C0813009F078C080915B0190915C014B
:1011D00090936A018093690110920D0180910F0133
:1011E000863009F418CF539A239A1092B4001092C3
:1011F000B30086E080930F010ECF80910F018630FF
:1012000099F0539A239A1092B4001092B300559813
:1012100054983B983A983D983C9810920D01109242
:101220000E0186E080930F0120915A0181E090E049
:1012300002C0880F991F2A95E2F720916901309129
:101240006A0182239323892BD1F510920D01E3CEFD
:1012500080910F01863009F0DECE6091690180EB4C
:1012600090E00E94C80D60916A0181EB90E00E94BD
:10127000C80D60916D0185E090E00E94C80D6091FD
:10128000590189E090E00E94C80D60916B018CE0EB
:1012900090E00E94C80D60916C0184E190E00E9492
:1012A000C80D539823981092B4001092B30081E0B7
:1012B00080930F0180915A01811190CFACCE81E0D3
:1012C00080930D01A8CE833009F452C08430A1F779
:1012D00020910D018091600190915F012330C9F050
:1012E00010920E0123E020930D0190936B018093E7
:1012F0006C0174CF90910D0180915D01913009F4E2
:1013000045C010920E0191E090930D0180936D0104
:1013100065CF20916C012813E3CF20916B01291335
:10132000DFCF5CCF85E080930F0175CE81E08093A5
:101330000F0171CE10920F016ECEF0E0E0E0099542
:1013400080910F01833009F466CE80910F018430C3
:1013500009F461CE539A239A1092B4001092B3000C
:1013600083E080930F0157CE82E080930F0153CE2C
:1013700090910D0180915E01923069F010920E0102
:1013800092E090930D018093590128CF90916D01C7
:101390009813B7CF23CF909159019813EFCF1ECF59
:1013A000FC0180812FEF3FEF2827022E2295207F1E
:1013B0002025032E322F22952F70022626953227C4
:1013C0002327220F220F220F202581812827022E7A
:1013D0002295207F2025032E322F22952F70022662
:1013E000269532272327220F220F220F20258281C4
:1013F0002827022E2295207F2025032E322F22958A
:101400002F700226269532272327220F220F220F24
:10141000202583812827022E2295207F2025032E38
:10142000322F22952F700226269532272327220F4E
:10143000220F220F202584812827022E2295207F2B
:101440002025032E322F22952F7002262695322733
:101450002327220F220F220F202585812827022EE5
:101460002295207F2025032E322F22952F700226D1
:10147000269532272327220F220F220F202586812F
:101480002827022E2295207F2025032E322F2295F9
:101490002F700226269532272327220F220F220F94
:1014A000202587812827022E2295207F2025032EA4
:1014B000322F22952F700226269532272327220FBE
:1014C000220F220F202580852827022E2295207F9B
:1014D0002025032E322F22952F70022626953227A3
:1014E0002327220F220F220F20254185C90184279F
:1014F000082E8295807F8025092E982F82958F70E7
:101500000826869598278927880F880F880F8025B9
:1015100008950FB6F894A4B120912D012A2B24B977
:1015200021E030912D01203029F0000025B1232B3E
:1015300025B904C000000000000000C00000000049
:101540000000309525B1232325B92EEA2A95F1F71D
:101550002BEE30B735FF0AC0A4B930912D0130957C
:1015600025B1232325B90FBE80E0089500002A95F8
:1015700081F721E030912D01203029F0000025B1C4
:10158000232B25B904C000000000000000C00000AB
:1015900000000000309525B1232325B9000024E583
:1015A0002A95F1F7FC018CE0619170E0660F771FDE
:1015B000616072609AE041E050E09A01262337238F
:1015C000232B30912D01203029F0000025B1232B51
:1015D00025B904C000000000000000C000000000A9
:1015E0000000309525B1232325B9000021E52A9577
:1015F000F1F7440F551F9A9501F78A95A9F620B780
:10160000206120BFA4B930912D01309525B123234D
:1016100025B90FBE81E008950E9472006FE570E069
:1016200080E690E00E948F0190E080E0089597FBB3
:10163000072E16F4009407D077FD09D00E94400BC6
:1016400007FC05D03EF4909581959F4F08957095C5
:1016500061957F4F0895EE0FFF1F0590F491E02DE7
:101660000994A29FB001B39FC001A39F700D811D7B
:101670001124911DB29F700D811D1124911D08959B
:10168000AA1BBB1B51E107C0AA1FBB1FA617B707A8
:1016900010F0A61BB70B881F991F5A95A9F78095C4
:1016A0009095BC01CD0108955058BB27AA270E94F0
:1016B0006C0B0C94BD0C0E94AF0C38F00E94B60C61
:1016C00020F039F49F3F19F426F40C94AC0C0EF47E
:1016D000E095E7FB0C94A60CE92F0E94CE0C58F382
:1016E000BA17620773078407950720F079F4A6F507
:1016F0000C94F00C0EF4E0950B2EBA2FA02D0B01DC
:10170000B90190010C01CA01A0011124FF27591B46
:1017100099F0593F50F4503E68F11A16F040A22F4C
:10172000232F342F4427585FF3CF469537952795BD
:10173000A795F0405395C9F77EF41F16BA0B620BBC
:10174000730B840BBAF09150A1F0FF0FBB1F661F03
:10175000771F881FC2F70EC0BA0F621F731F841F46
:1017600048F4879577956795B795F7959E3F08F06C
:10177000B0CF9395880F08F09927EE0F979587952E
:1017800008950E94D50B0C94BD0C0E94B60C58F025
:101790000E94AF0C40F029F45F3F29F00C94A60C96
:1017A00051110C94F10C0C94AC0C0E94CE0C68F30B
:1017B0009923B1F3552391F3951B550BBB27AA270A
:1017C00062177307840738F09F5F5F4F220F331F44
:1017D000441FAA1FA9F335D00E2E3AF0E0E832D00C
:1017E00091505040E695001CCAF72BD0FE2F29D00F
:1017F000660F771F881FBB1F261737074807AB07E1
:10180000B0E809F0BB0B802DBF01FF2793585F4F55
:101810003AF09E3F510578F00C94A60C0C94F10C14
:101820005F3FE4F3983ED4F3869577956795B79537
:10183000F7959F5FC9F7880F911D9695879597F942
:101840000895E1E0660F771F881FBB1F62177307BB
:101850008407BA0720F0621B730B840BBA0BEE1FD0
:1018600088F7E09508950E943A0C6894B1110C94A1
:10187000F10C08950E94D60C88F09F5798F0B92F6C
:101880009927B751B0F0E1F0660F771F881F991FB5
:101890001AF0BA95C9F714C0B13091F00E94F00C5B
:1018A000B1E008950C94F00C672F782F8827B85F6B
:1018B00039F0B93FCCF3869577956795B395D9F70D
:1018C0003EF490958095709561957F4F8F4F9F4F17
:1018D0000895E89409C097FB3EF490958095709523
:1018E00061957F4F8F4F9F4F9923A9F0F92F96E96C
:1018F000BB279395F695879577956795B795F111E1
:10190000F8CFFAF4BB0F11F460FF1BC06F5F7F4F7D
:101910008F4F9F4F16C0882311F096E911C077238F
:1019200021F09EE8872F762F05C0662371F096E898
:10193000862F70E060E02AF09A95660F771F881F67
:10194000DAF7880F9695879597F9089597F99F6725
:1019500080E870E060E008959FEF80EC0895002437
:101960000A941616170618060906089500240A9404
:1019700012161306140605060895092E0394000C8A
:1019800011F4882352F0BB0F40F4BF2B11F460FF19
:1019900004C06F5F7F4F8F4F9F4F089557FD905842
:1019A000440F551F59F05F3F71F04795880F97FB23
:1019B000991F61F09F3F79F08795089512161306DD
:1019C0001406551FF2CF4695F1DF08C0161617060C
:1019D0001806991FF1CF8695710561050894089541
:1019E000E894BB2766277727CB0197F908950E94D3
:1019F0000A0D0C94BD0C0E94AF0C38F00E94B60C7E
:101A000020F0952311F00C94A60C0C94AC0C11242E
:101A10000C94F10C0E94CE0C70F3959FC1F3950FBE
:101A200050E0551F629FF001729FBB27F00DB11D62
:101A3000639FAA27F00DB11DAA1F649F6627B00DF2
:101A4000A11D661F829F2227B00DA11D621F739FDB
:101A5000B00DA11D621F839FA00D611D221F749FE9
:101A60003327A00D611D231F849F600D211D822F30
:101A7000762F6A2F11249F5750409AF0F1F0882357
:101A80004AF0EE0FFF1FBB1F661F771F881F915084
:101A90005040A9F79E3F510580F00C94A60C0C9481
:101AA000F10C5F3FE4F3983ED4F386957795679504
:101AB000B795F795E7959F5FC1F7FE2B880F911DAE
:101AC0009695879597F908958F929F92AF92BF92BE
:101AD000CF92DF92EF92FF92CF93DF93EC01688178
:101AE00079818A819B81611571058105910521F4B8
:101AF00064E279ED8BE597E02DE133EF41E050E0D2
:101B00000E94D60D49015A019B01AC01A7EAB1E43C
:101B10000E94F50D6B017C01ACEEB4EFA5019401C0
:101B20000E94030EDC01CB018C0D9D1DAE1DBF1D5F
:101B3000B7FF03C00197A109B04888839983AA839E
:101B4000BB839F77DF91CF91FF90EF90DF90CF9095
:101B5000BF90AF909F908F9008950E94640D08955C
:101B600087E091E00E94640D0895B0E0A0E08093CA
:101B7000070190930801A0930901B0930A01089509
:101B8000F999FECF92BD81BDF89A992780B5089545
:101B9000262FF999FECF1FBA92BD81BD20BD0FB689
:101BA000F894FA9AF99A0FBE01960895052E97FBBC
:101BB0001EF400940E94ED0D57FD07D00E94080E00
:101BC00007FC03D04EF40C94ED0D509540953095E4
:101BD00021953F4F4F4F5F4F089590958095709599
:101BE00061957F4F8F4F9F4F08950E94310BA59FA6
:101BF000900DB49F900DA49F800D911D1124089508
:101C0000B7FF0C94F50D0E94F50D821B930B089500
:101C1000A1E21A2EAA1BBB1BFD010DC0AA1FBB1FF0
:101C2000EE1FFF1FA217B307E407F50720F0A21B62
:101C3000B30BE40BF50B661F771F881F991F1A94CF
:101C400069F760957095809590959B01AC01BD01F9
:081C5000CF010895F894FFCFC5
:0C1C5800AA71006E006D00010000000089
:00000001FF
