:100000000C9434000C945D000C945D000C945D0025
:100010000C945D000C945D000C94740E0C945D00C7
:100020000C945D000C945D000C945D000C94A51480
:100030000C945D000C945D000C9405140C945D0010
:100040000C945D000C945D000C945D000C945D00BC
:100050000C945D000C945D000C945D000C94C7142E
:100060000C945D000C945D0011241FBECFEFD8E00E
:10007000DEBFCDBF14BE0FB6F894A8958091600086
:10008000886180936000109260000FBE11E0A0E0D4
:10009000B1E0EAEBF6E302C005900D92AE31B10794
:1000A000D9F721E0AEE1B1E001C01D92A33EB20755
:1000B000E1F70E9408180C945B1B0C940000EF926F
:1000C000FF920F931F93CF93DF93FC01C091000128
:1000D000D0910101808188A3DB010D911D912D91AB
:1000E0003C910C8F1D8F2E8F3F8F81E08B8F8181F4
:1000F0008AA38281DE01A95ABF4F8C938381129615
:100100008C939481937099871697948192FB992789
:1001100090F99C9391818BA1981709F454C08BA5F9
:10012000981709F453C08BA9981709F453C08BADE5
:10013000981709F453C050978C91981771F018963E
:100140008C9115E0E12EF12C891751F0DF91CF91C0
:100150001F910F91FF90EF90089544E0E42EF12C51
:10016000CB018F01F7013596EE0FFF1FEE0FFF1F3A
:10017000EE0FFF1FEC0FFD1F10820E942811F701E8
:10018000EE0FFF1FEE0FFF1FEE0FFF1FCE0FDF1F43
:1001900089A7A0910001B0910101E8018A81EA0FCD
:1001A000FB1F85A38B8186A319968C91199787A332
:1001B000AD5ABF4F8C9182A7DF91CF911F910F91C4
:1001C000FF90EF900895F12CE12CCACFEE24E39438
:1001D000F12CC6CFA2E0EA2EF12CC2CF53E0E52EDF
:1001E000F12CBECFCF93DF93C0910001D0910101DC
:1001F000FE01EA5AFF4F8081888F32968081898F75
:100200009885937035978081880F880F892B8A8F06
:100210001B8ACE010A96FD9725E0DC0101900D9224
:100220002A95E1F70E94CC169D8B8C8B8091000162
:10023000909101010A96DF91CF910895CF9380911B
:10024000A8019091A901A091AA01B091AB012091C0
:10025000DE01820F0E9408118BE48093E2018093FB
:10026000CE01E0910001F0910101DF01AD5ABF4FD5
:1002700081E08C9311961C9212961C92108E8091A4
:10028000DE0112968C93818F129640E05CE36CE164
:1002900076E44D935D936D937C93139714961C9223
:1002A00011961C92108613961C929FEF93A393A70E
:1002B00093AB93AF5F979C9318969C938183823006
:1002C00048F09EEF980F9230A0F191E02AEF280FAE
:1002D000223008F090E09083138E968B878B0E94DB
:1002E000F010E0910001F09101018F7390E0B0E017
:1002F000A0E082839383A483B583C1E0C6830E9478
:10030000F010E0910001F09101018F73805E87830E
:10031000DF01A05ABF4FCC938081833060F48130DD
:1003200020F483E0CF910C94811480E3CF910C945E
:10033000811491E0D0CF833021F48FE0CF910C94E1
:100340008114CF91089521E08234910508F420E0D2
:10035000822F089521E0C89708F020E0822F0895A9
:10036000823050F09EEF980F923040F09AEF980F45
:1003700081E0923008F4089580E0089581E00895C6
:10038000CF93DF93C82FD62F8823D9F08091B30065
:10039000811117C060E08FEFDD2339F08091B40048
:1003A00061E081111DC061958FEF0E94F20F8FE017
:1003B00090E00E94E70F6D2F8C2FDF91CF910C946E
:1003C000F20FD11106C06D2F8C2FDF91CF910C94BD
:1003D000F20F8091B4008111F6CF80E06FEFE5CF8E
:1003E00060E0E1CFCF93DF93E0910001F091010154
:1003F0008683823009F441C0833051F1882331F083
:1004000060E080E0DF91CF910C94F20FD091CE01AB
:10041000C091E201CC2309F446C08091B300811160
:1004200042C060E08FEFDD2339F08091B40061E0DD
:10043000811148C061958FEF0E94F20F8FE090E02C
:100440000E94E70F6D2F8C2FDF91CF910C94F20F4C
:10045000C091CE01CC2359F08091B400811107C026
:100460006FEF0E94F20F8FE090E00E94E70F6C2F79
:1004700080E0DF91CF910C94F20FC091E201CC2388
:1004800061F08091B300811108C060E08FEF0E949D
:10049000F20F8FE090E00E94E70F60E08C2FDF9179
:1004A000CF910C94F20FD11106C06D2F8C2FDF91DC
:1004B000CF910C94F20F8091B4008111F6CF80E0BF
:1004C0006FEFBACF60E0B6CF90E0E62FF0E0DC014E
:1004D000AA0FBB1FAA0FBB1FA35FBE4FAE0FBF1F4C
:1004E0002C9121110EC0EE0FFF1FEE0FFF1FE35FD7
:1004F000FE4FE80FF91F81E090819111089580E08F
:10050000089581E00895E0910001F091010193A127
:100510009F3F19F091E024A1281390E023A52F3FDD
:1005200019F024A5821761F123A92F3F19F024A9FE
:10053000821721F123AD2F3F19F024AD8217E1F08E
:10054000DF01AD5BBF4F2C912F3F21F011962C9115
:10055000821781F0DF01A55BBF4F2C912F3F29F05F
:10056000E45BFF4F2081821711F0892F08959F5F70
:10057000892F08959F5FEECF9F5FE2CF9F5FDACF15
:100580009F5FD2CF0F931F93CF93DF93E091000132
:10059000F091010193A19F3F09F451C093A59F3FA2
:1005A00009F450C093A99F3F09F44FC093AD9F3FFA
:1005B00009F44EC0DF01AD5BBF4F9C919F3F59F0E6
:1005C00018969C91A5E0B0E09F3F39F0DF91CF9164
:1005D0001F910F910895A4E0B0E08D01000F111F4D
:1005E000000F111F000F111FEF01C00FD11F8BA3B0
:1005F0006CA31596AA0FBB1FAA0FBB1FAA0FBB1F88
:10060000AE0FBF1F1C92DF01A95ABF4F8C918DA363
:1006100012968C918EA3CF014C960E94281189A727
:10062000A0910001B0910101FD01E00FF11F1996A9
:100630008C9187A3DF91CF911F910F910895B0E026
:10064000A0E0CBCFA1E0B0E0C8CFA2E0B0E0C5CF42
:10065000A3E0B0E0C2CF94E0899FF0011124E35FF2
:10066000FE4FE60FF11D90819923D9F1E091000131
:10067000F091010183A18F3F19F021E084A186133D
:1006800020E083A58F3F21F084A5681301C02F5F70
:1006900083A98F3F21F084A9681301C02F5F83AD28
:1006A0008F3F21F084AD681301C02F5FDF01AD5B88
:1006B000BF4F8C918F3F29F011968C91681301C028
:1006C0002F5FDF01A55BBF4F8C918F3F31F0E45B63
:1006D000FF4F8081681301C02F5F81E0291708F464
:1006E000089580E00895E0910001F091010193A147
:1006F0008917B9F093A58917A1F093A9891789F0F3
:1007000093AD891771F0DF01AD5BBF4F9C918917E5
:1007100041F0E55BFF4F91E02081281390E0892FA5
:10072000089591E0892F0895CF93DF93E091000120
:10073000F091010183A18F3F31F080A58F5F80A7E9
:10074000813308F056C083A58F3F31F080A98F5FB9
:1007500080AB813308F048C083A98F3F29F080AD7A
:100760008F5F80AF8133D8F583AD8F3F41F0DF01DC
:10077000A05CBF4F8C918F5F8C93813358F5DF0164
:10078000AD5BBF4F8C918F3F41F0EF01C85BDF4FF6
:1007900088818F5F88838133B8F4DF01A55BBF4F09
:1007A0008C918F3F71F0EF01C05BDF4F88818F5FCD
:1007B0008883813330F08FEF8C93E45BFF4F10829E
:1007C0008883DF91CF9108958FEF8C9311961C92BF
:1007D0008883E3CF8FEF83AF14AE8C93D0CF8FEFAE
:1007E00083AB14AA80AFC0CF8FEF83A714A680ABD2
:1007F000B3CF8FEF83A314A280A7A5CFE091000110
:10080000F091010183A18F3FC1F483A58F3FA9F42B
:1008100083A98F3F91F483AD8F3F79F4DF01AD5B06
:10082000BF4F8C918F3F49F4E55BFF4F81E0908192
:100830009F3F09F0089580E0089581E00895EF92C8
:10084000FF920F931F93CF93DF93E0910001F091FC
:10085000010183A18F3F09F0E1C083A58F3F09F01B
:10086000DDC083A98F3F09F0D9C083AD8F3F09F068
:10087000D5C07F0123E4E20EF11CD7018C918F3F9C
:1008800009F0CCC09F01255B3F4FE90188818F3F74
:1008900009F0C4C010864FEF83A98F3F21F097A9BC
:1008A000913009F4EAC193AD9F3F21F057AD51302B
:1008B00009F4E3C1D7015C915F3F39F0DF01A95B27
:1008C000BF4F6C91613009F4D8C1E90168816F3F75
:1008D00039F0DF01A15BBF4F7C91713009F4CDC1CC
:1008E0004F3F21F077A5772309F4DDC28F3F21F038
:1008F00077A9772309F4DDC19F3F21F077AD7723F6
:1009000009F4D3C25F3F39F0DF01A95BBF4F7C918F
:10091000772309F4CDC16F3F39F0DF01A15BBF4FF1
:100920007C91772309F4C9C24F3F21F077A572303B
:1009300009F4BDC28F3F21F077A9723009F4BAC221
:100940009F3F21F077AD723009F421C25F3F39F04B
:10095000DF01A95BBF4F5C91523009F432C26F3F97
:1009600039F0DF01A15BBF4F5C91523009F42EC218
:1009700063A16F3F41F0DF01A85ABF4F66A15C91B0
:10098000651709F4A9C16FEF7FEF4F3F41F0DF0119
:10099000A85ABF4F56A54C91541709F4CFC18F3FA9
:1009A00041F0DF01A85ABF4F46A98C91481709F4BE
:1009B000BBC19F3F41F0DF01A85ABF4F96AD8C915C
:1009C000981709F4A8C1D7018C918F3F59F0DF0126
:1009D000A85ABF4FEF01CA5BDF4F98818C919817DF
:1009E00009F48BC1D9018C918F3F59F0DF01A85ACE
:1009F000BF4FEF01C25BDF4F98818C91981709F4CC
:100A000070C16F3F760719F0EA5AFF4F6083DF919C
:100A1000CF911F910F91FF90EF900895DF01A85A99
:100A2000BF4F5C91852F90E02091DE013091DF0176
:100A30008217930709F448C082E0808763A16F3F63
:100A400021F087A1823009F4DFC043A54F3F21F098
:100A500087A5823009F4DFC083A98F3F21F097A9D1
:100A6000923009F4F1C093AD9F3F21F027AD2230C1
:100A700009F4F1C07F01D3E4ED0EF11CE7012881F8
:100A80002F3F41F09F01295B3F4FE9012881223030
:100A900009F4E8C09F01255B3F4FE90178817F3F62
:100AA00009F467CF8F01015B1F4FE8017881723035
:100AB00009F05FCF01501109E8017881751709F439
:100AC00058CF85E090E0ADC021E0208723A12F3FE3
:100AD00021F037A1332309F4E3C033A53F3F21F0D0
:100AE00047A5442309F470C143A94F3F21F067A9EA
:100AF000662309F46EC163AD6F3F21F077AD7723B4
:100B000009F469C1EF01CD5BDF4F78817F3F29F0A8
:100B10002496C881CC2309F4C2C0EF01C55BDF4F26
:100B2000F880DFEFFD1641F08F01015B1F4FE801F8
:100B30001881112309F4C3C12F3F21F0D7A1D2306E
:100B400009F411C13F3F21F0D7A5D23009F412C1F9
:100B50004F3F21F0D7A9D23009F43FC16F3F21F0B8
:100B6000D7ADD23009F46AC17F3F41F08F01095BF4
:100B70001F4FE8011881123009F477C1DFEFFD162D
:100B800041F08F01015B1F4FE8011881123009F419
:100B90007FC12F3F21F057A1513009F440C13F3FA1
:100BA00021F027A5213009F41FC14F3F21F027A9CB
:100BB000213009F43BC16F3F21F027AD213009F40A
:100BC0004CC17F3F41F09F01295B3F4FE9012881E4
:100BD000213009F43AC1DFEFFD1641F09F01215B9E
:100BE0003F4FE9012881213009F44AC1DF01AE59A4
:100BF000BF4F1C92EA5AFF4F1082DF91CF911F9195
:100C00000F91FF90EF90089576A1571709F41DCF2B
:100C100090E080E006C076A5571709F41DCF81E06B
:100C200090E0751708F0F3CE7C93DF01AA5ABF4F0E
:100C3000880F991F880F991F880F991FE80FF91FB8
:100C400085A18F5F8C93E3CE76A9571709F40BCF5C
:100C500082E090E0E6CF76AD571709F40BCF83E042
:100C600090E0DFCF9F012A5B3F4FE9017881571762
:100C700009F410CF84E090E0D4CF81E08087DF01D9
:100C8000A85ABF4F8091DE018C93EA5AFF4F108221
:100C9000DF91CF911F910F91FF90EF900895272F33
:100CA00082E080872C93EA5AFF4F81E08083AFCEA9
:100CB000852F2091DE013091DF018217130609F0A4
:100CC00008F446C081E08087DF01A85ABF4F2C930B
:100CD000EA5AFF4F10829BCE65A170E06F5F7F4F95
:100CE00054CEDF01A35BBF4F8C9190E00196861735
:100CF000970708F089CEBC0187CE2197888190E0C4
:100D000001968617970708F4BC01E90188818F3F97
:100D100009F06FCE79CE85AD90E0019686179707E2
:100D200008F051CEBC014FCE45A950E04F5F5F4F58
:100D30004617570708F03DCEBA013BCE45A550E017
:100D40004F5F5F4F4617570708F029CEBA0127CEED
:100D500092E09087DF01A85ABF4F8C93EA5AFF4F69
:100D600081E0808354CE16A1511709F4EBCE90E0B8
:100D700080E006C016A5511709F4EACE81E090E0A4
:100D8000151708F044CE22E020871C934ECFA3E035
:100D9000B0E082E08087EF01C85ADF4FAA0FBB1F87
:100DA000AA0FBB1FAA0FBB1FAE0FBF1F96968C9139
:100DB00096978883EA5AFF4F95968C918F5F808330
:100DC00026CEA4E0B0E0E5CF232F6ACFA5E0B0E0C7
:100DD000E0CF242F65CF262F63CF16A9511709F432
:100DE000BDCE82E090E0CCCF032F10E008171907AA
:100DF00009F4DBCE232F0817190708F008CEEF01FE
:100E0000CE59DF4F8881823008F45BC082E0808752
:100E10002C93EA5AFF4F81E080831882F8CD022F8D
:100E200010E08017910709F4BACEE5CF042F10E047
:100E30008017910709F4BFCE242FDDCF16AD5117CF
:100E400009F492CE83E090E09BCF072F10E080174B
:100E5000910709F4C0CE272FCECF062F10E0081738
:100E6000190709F4AECE262FC6CF8F010A5B1F4F9C
:100E7000E8011881511709F481CE84E090E080CF19
:100E80000F2D10E02F2D0817190709F4AFCEB3CF9F
:100E90008F01025B1F4FE8011881151709F479CE05
:100EA00085E090E06DCF842F04CF892F02CFA1E0A1
:100EB000B0E06FCFA2E0B0E06CCF862FFACE2F2D3E
:100EC000EFCE8F5F8883A3CDCF93DF93E0910001B6
:100ED000F09101014091A8015091A9016091AA01EE
:100EE0007091AB01278182819381A481B581820FAA
:100EF000911DA11DB11D84179507A607B70718F00E
:100F0000DF91CF9108958091A8019091A901A091BE
:100F1000AA01B091AB0182839383A483B5830E941D
:100F2000F010E0910001F09101018F73805E8783E2
:100F30000E94F0108370813009F44DC0F0F08230CF
:100F400009F065C0E0910001F091010183E0868322
:100F5000C091CE01CC2359F08091B400811107C01B
:100F60006FEF0E94F20F8FE090E00E94E70F6C2F6E
:100F700080E0DF91CF910C94F20FE0910001F091AD
:100F800001011682D091CE01C091E201CC23D9F0AB
:100F90009091B300911117C060E08FEFDD2339F01D
:100FA0008091B40061E0811160E061958FEF0E9453
:100FB000F20F8FE090E00E94E70F6D2F8C2FDF91F2
:100FC000CF910C94F20FDD23C1F39091B4009111F5
:100FD000F4CF6FEFECCFE0910001F091010182E0DE
:100FE0008683C091E201CC2361F08091B30081112E
:100FF00008C060E08FEF0E94F20F8FE090E00E9447
:10100000E70F60E08C2FDF91CF910C94F20FE0910D
:101010000001F091010181E0868360E080E0DF91D2
:10102000CF910C94F20F8F929F92AF92BF92CF927A
:10103000DF92EF92FF920F931F93CF93DF93E09194
:101040000001F0910101838D882309F4AEC0138E55
:10105000CF014C960E942811E0910001F09101010E
:1010600060A1A0814A2F50E0262F30E0DA01AA0FBC
:10107000BB1FAA0FBB1FA35FBE4FA20FB31F7C9164
:10108000772309F4AEC192A123A1921709F48DC070
:1010900033A5931709F489C043A9941709F485C0AF
:1010A00053AD951709F481C0DF01AD5BBF4FAC9123
:1010B0009A1709F47AC0EF01C55BDF4FB8819B171F
:1010C00009F473C0843608F070C0772309F46DC04A
:1010D0002F3F19F081E0C4A1C61380E03F3F21F00B
:1010E000C4A56C1301C08F5F4F3F21F0C4A96C13DE
:1010F00001C08F5F5F3F21F0C4AD6C1301C08F5FF3
:10110000AF3F39F0EF01CC5BDF4FC8816C1301C0FA
:101110008F5FBF3F39F0EF01C45BDF4FC8816C13B5
:1011200001C08F5F871708F040C02F3F09F4DAC372
:101130003F3F09F4D4C34F3F09F4CEC35F3F09F4E6
:10114000C8C3AF3F09F4C2C3BF3F79F5A5E0B0E023
:101150008D01000F111F000F111F000F111FEF0154
:10116000C00FD11F9BA36CA31596AA0FBB1FAA0F7C
:10117000BB1FAA0FBB1FAE0FBF1F1C92DF01A95AD6
:10118000BF4F8C918DA312968C918EA3CF014C965C
:101190000E94281189A7A0910001B0910101FD01D1
:1011A000E00FF11F19968C9187A30E941F04C09134
:1011B0000001D09101018881882309F479C08885D4
:1011C000813009F485C0813008F432C1FE018230DB
:1011D00009F41CC1EC5AFF4FDE01AD5ABF4F8C9190
:1011E00080838BA18F3F49F088A58F5F88A78133CB
:1011F00020F08FEF8BA31CA288A78BA58F3F49F00F
:1012000088A98F5F88AB813320F08FEF8BA71CA656
:1012100088AB8BA98F3F49F088AD8F5F88AF813352
:1012200020F08FEF8BAB1CAA88AF8BAD8F3F61F0A6
:10123000FE01E05CFF4F80818F5F8083813320F06F
:101240008FEF8BAF1CAE8083FE01ED5BFF4F808183
:101250008F3F69F0DE01A85BBF4F8C918F5F8C934D
:10126000813328F08FEF8083319610828C93FE01BA
:10127000E55BFF4F80818F3F71F0DE01A05BBF4FC8
:101280008C918F5F8C93813330F08FEF8083C45BC0
:10129000DF4F18828C93DF91CF911F910F91FF90B8
:1012A000EF90DF90CF90BF90AF909F908F90089578
:1012B000CA5ADF4F88818111A1C083E00E94811446
:1012C000C0910001D09101018885813009F07BCF68
:1012D000FE01ED5AFF4F10818BA1113009F4D5C0EA
:1012E0008F3F09F4B0C22DA1DE01AA5ABF4F8C91E5
:1012F00090E001962817190609F0A5C289A5883340
:1013000008F0B5C041E08BA58F3F79F02DA5DE0137
:10131000AA5ABF4F8C9190E001962817190629F41C
:1013200089A9883308F0A3C041E08BA98F3F79F0E9
:101330002DA9DE01AA5ABF4F8C9190E00196281783
:10134000190629F489AD883308F091C041E08BADCE
:101350008F3F81F02DADDE01AA5ABF4F8C9190E0F6
:1013600001962817190631F455978C91883308F0A7
:101370007EC041E0DE01AD5BBF4F8C918F3F09F431
:1013800064C012962C9130E051968C9190E00196B9
:101390002817390709F059C01D978C91883308F038
:1013A00066C012968C918F3F69F0DE01A35BBF4F40
:1013B0008C918217130631F4CF5ADF4F888188331E
:1013C00008F055C010828CE30E9481140E946407CB
:1013D000C0910001D0910101FE01EC5AFF4F108332
:1013E000FBCED901AA0FBB1FAA0FBB1FA35FBE4F25
:1013F000A40FB51F9C91911146CE4DCF81E00E9464
:101400008114C0910001D0910101D9CEED5AFF4F56
:101410008081813009F4ACC081E08E8360E080E09F
:101420000E94F20FC0910001D0910101FE01D2CEC5
:1014300081E10E9481140E946407C0910001D09153
:101440000101FE01EC5AFF4FC7CEDE01A55BBF4F85
:101450008C918F3F51F012962C9119968C9190E0BF
:1014600001962817190609F4A7CF4111ABCF85E1E2
:101470000E948114E0910001F091010181E08683D6
:1014800060E080E00E94F20FA3CF8F3F09F4D9C142
:101490002DA13396808190E001962817190609F056
:1014A000D0C189A5823408F48ECF41E08BA58F3F4F
:1014B00079F02DA5FE01EA5AFF4F808190E0019658
:1014C0002817190629F489A9823408F47CCF41E051
:1014D0008BA98F3F79F02DA9FE01EA5AFF4F808139
:1014E00090E001962817190629F489AD823408F492
:1014F0006ACF41E08BAD8F3F81F02DADFE01EA5AFE
:10150000FF4F808190E001962817190631F47597F6
:101510008081823408F457CF41E0FE01ED5BFF4F3C
:1015200080818F3F09F4B5C13296208130E07196F9
:10153000808190E001962817390709F0AAC13D97EC
:101540008081823408F43FCF329680818F3F09F446
:101550008ECFFE01E35BFF4F80818217130609F0F7
:1015600086CFCF5ADF4F8881823408F080CF2BCFCF
:101570008BA08FEF881649F02DA133968081815082
:10158000990B2817190609F448C1C12CD12C7601F2
:101590009BA4EFEF9E16F1F02DA5FE01EA5AFF4F36
:1015A00080818150990B28171906A1F469A970E070
:1015B00090E080E00E94761920E030E048E452E4B8
:1015C0000E945C189B01AC01C701B6010E945D1826
:1015D0006B017C01ABA8FFEFAF16F1F02DA9FE0166
:1015E000EA5AFF4F80818150990B28171906A1F400
:1015F00069AD70E090E080E00E94761920E030E074
:1016000048E452E40E945C189B01AC01C701B6019A
:101610000E945D186B017C01BBAC8FEFB816F9F02E
:101620002DADFE01EA5AFF4F80818150990B28179A
:101630001906A9F47597608170E090E080E00E943F
:10164000761920E030E048E452E40E945C189B01E7
:10165000AC01C701B6010E945D186B017C01FE015F
:10166000ED5BFF4F00810F3FF1F0329620817196C4
:1016700080818150990B28171906A9F43D97608144
:1016800070E090E080E00E94761920E030E048E4CD
:1016900052E40E945C189B01AC01C701B6010E9494
:1016A0005D186B017C01FE01E55BFF4F10811F3F60
:1016B000F1F032962081399680818150990B28175C
:1016C0001906A9F43597608170E090E080E00E94EF
:1016D000761920E030E048E452E40E945C189B0157
:1016E000AC01C701B6010E945D186B017C01E89452
:1016F000F7F8EFEF8E1669F02DA1FE01EA5AFF4FC1
:1017000080818150990B2817190619F48AA5329700
:101710008083FFEF9F1669F02DA5FE01EA5AFF4F67
:1017200080818150990B2817190619F48AA93297DC
:1017300080838FEFA81669F02DA9FE01EA5AFF4FAA
:1017400080818150990B2817190619F48AAD3297B8
:101750008083EFEFBE1671F02DADFE01EA5AFF4F08
:1017600080818150990B2817190621F47497808184
:10177000729680830F3F79F0FE01EB5BFF4F208173
:10178000719680818150990B2817190621F43C9796
:1017900080813A9680831F3F79F0FE01E35BFF4F23
:1017A0002081399680818150990B2817190621F4E0
:1017B000349780813296808320E030E040EA50E424
:1017C000C701B6010E94C91887FD26CEFE01EC5A5A
:1017D000FF4F8081811139C03A961082319684E1A1
:1017E000808381E08E838E01065A1F4FF801C082EC
:1017F000D182E282F3828FE00E948114E0910001A5
:10180000F091010186810E94F201C0910001D09106
:101810000101FE01EC5AFF4FDFCC69A570E090E0BA
:1018200080E00E94761920E030E048E452E40E9413
:101830005C1820E030E0A9010E945D186B017C017A
:10184000A7CE40E033CE40E05ECD4E01FFE58F0EE7
:10185000911CF401B0808E01065A1F4FF8012081BF
:10186000318142815381C701B6010E94C91887FFA7
:1018700005C0BB2011F1F4E1BF16F9F0BA94F401F0
:10188000B082FE01E25AFF4F81E0808382E08E83C6
:10189000ADCFFE01E55BFF4F80818F3F51F0329667
:1018A00020813996808190E001962817190609F465
:1018B00058CE442309F487CDDACDFE01E25AFF4F1A
:1018C000108284E1F40180831E8290CFA4E0B0E016
:1018D0003FCCA3E0B0E03CCCA2E0B0E039CCA1E04A
:1018E000B0E036CCB0E0A0E033CCBC0190E080E0CA
:1018F0000E94761920E030E048E452E40E945C182F
:101900000895CF92DF92EF92FF92CF93DF93C09131
:101910000001D09101018BA18F3F59F02DA1FE0153
:10192000EA5AFF4F80818150990B2817190609F454
:10193000B9C0C12CD12C76018BA58F3FF1F02DA51C
:10194000FE01EA5AFF4F80818150990B2817190632
:10195000A1F469A970E090E080E00E94761920E08F
:1019600030E048E452E40E945C189B01AC01C701DE
:10197000B6010E945D186B017C018BA98F3FF1F0CD
:101980002DA9FE01EA5AFF4F80818150990B28173B
:101990001906A1F469AD70E090E080E00E9476192C
:1019A00020E030E048E452E40E945C189B01AC0166
:1019B000C701B6010E945D186B017C018BAD8F3FA2
:1019C000F9F02DADFE01EA5AFF4F80818150990B4D
:1019D00028171906A9F47597608170E090E080E0FF
:1019E0000E94761920E030E048E452E40E945C183E
:1019F0009B01AC01C701B6010E945D186B017C011F
:101A0000FE01ED5BFF4F80818F3FF1F03296208128
:101A1000719680818150990B28171906A9F43D977A
:101A2000608170E090E080E00E94761920E030E074
:101A300048E452E40E945C189B01AC01C701B60166
:101A40000E945D186B017C01FE01E55BFF4F808108
:101A50008F3FF9F032962081399680818150990B21
:101A600028171906B1F4CF5ADF4F688170E090E073
:101A700080E00E94761920E030E048E452E40E94C1
:101A80005C189B01AC01C701B6010E945D186B0197
:101A90007C01C701B601DF91CF91FF90EF90DF90FD
:101AA000CF90089569A570E090E080E00E947619DB
:101AB00020E030E048E452E40E945C1820E030E08E
:101AC000A9010E945D186B017C0136CF90E080E097
:101AD0000895089590E080E0089508955F926F92D0
:101AE0007F928F929F92AF92BF92CF92DF92EF92AE
:101AF000FF920F931F93CF93DF93F89414B817B806
:101B00001AB815B818B81BB8529A5A9A14BC85E07E
:101B100085BD8FEF87BD82E080936E0010928000BC
:101B2000109281002FE83BE03093890020938800D9
:101B300080936F005398239891EA9093B00080931C
:101B4000B1001092B4001092B3008BE080BF83E02C
:101B500080937F0086E080937C0083E880937A0006
:101B600080917A00806480937A0080917A0086FD6B
:101B7000FCCF10927C0083EA80937A0081E080930E
:101B80007B0081E090E00E94F11A8F3F11F080937A
:101B900066001092AC01C1E0C0938501C093C901F9
:101BA0001092A3011092DD0180E990E00E94F11AE9
:101BB0008093A2018091A201887311F0C093A201C9
:101BC0001092CD011092CC018FEF90E09093CB0159
:101BD0008093CA011092A8011092A9011092AA0143
:101BE0001092AB0181E08093210182E49FE0909309
:101BF000DC018093DB0180EB90E00E94F11AC82F9A
:101C000081EB90E00E94F11A982F8C2F9093DF01C6
:101C10008093DE0185E090E00E94F11A8093E2015A
:101C200089E090E00E94F11A8093CE018CE090E070
:101C30000E94F11A8093E00184E190E00E94F11A81
:101C40008093E10106E811E089EC882E81E0982E6E
:101C5000CDEAD1E080E290E09C012D5A314039017B
:101C600081E290E0FC01ED5AF1405F018EE490E0EA
:101C70009C012D5A314069018FE490E0FC01ED5A3E
:101C8000F1407F01C3018C0F9D1F0E94F11A582E55
:101C9000C5018C0F9D1F0E94F11A952D8993999370
:101CA000C6018C0F9D1F0E94F11A582EC7018C0F80
:101CB0009D1F0E94F11A952DF801819391938F0138
:101CC0008C169D06F9F67894DF91CF911F910F91B4
:101CD000FF90EF90DF90CF90BF90AF909F908F904C
:101CE0007F906F905F9008951F920F920FB60F92A2
:101CF00011248F930FB6F894A895809160008861A5
:101D000080936000109260000FBE8F910F900FBE05
:101D10000F901F9018953C01EB0110E099249A94C4
:101D200084E0C82E96E0A92E23E8B22E38E1D32E07
:101D300049E2E42EE0912101E730E0F7F0E0ED55D3
:101D4000F14F0C943318FC0EE00EB40EAA0EB10E37
:101D50005A0F4F0F111102C0F3010995C0922101D2
:101D600011E0FE010995E6CF8091AC01811103C11C
:101D7000F894A0927C00B0927A0080917A008064FE
:101D800080937A0080917A0086FDFCCF8091780064
:101D90009091790078948B3AE2E09E070CF0E4C0D1
:101DA0008938F2E09F070CF0EDC0873692400CF4C2
:101DB000E2C0559A549A3B9A3A9A3D983C98BACFC9
:101DC000559854983B9A3A9A3D983C98EFECF7E036
:101DD0003197F1F700C00000559854983B983A9815
:101DE0003D983C98FFEF21EE84E0F1502040804088
:101DF000E1F700C000009ECFF89480B7877F80BFD6
:101E000080917A008F7780937A0014B817B81AB847
:101E100015B818B81BB80FB6F894A895D092600002
:101E20000FBEE0926000809160008064809360004B
:101E300083B7817F846083BFF89483B7816083BF59
:101E40007894889583B78E7F83BF78941092AC0185
:101E5000529A5A9A80917A00806880937A0087E536
:101E600092E00197F1F700C0000080B7886180BF61
:101E7000559A549A3B9A3A9A3D9A3C9AEFE1FEE47D
:101E80003197F1F700C000008091AC0181115CC076
:101E9000559854983B983A983D983C984BCF8091F0
:101EA0001F01811125C01092B3001092B40010924E
:101EB000200140CF4899ECCF559A54983B983A98D6
:101EC0003D983C988FEC97E00197F1F700C0000037
:101ED000559854983B983A983D983C989FEFE1EE7E
:101EE000F4E09150E040F040E1F700C0000022CF64
:101EF00090911F0180912001981709F41BCF8091C8
:101F00001F018093200180911F01813009F441C09D
:101F100080911F011092B3009092B400823009F4B6
:101F200049C09092B3009092B4008FE295E7019778
:101F3000F1F700C000008091E1019091E0019093E1
:101F4000B3008093B400F6CE559A549A3B983A98D1
:101F50003D983C98FFEF20E782E0F1502040804020
:101F6000E1F700C0000094CF559854983B9A3A9AF4
:101F70003D983C98DFCE559A549A3B983A983D98B4
:101F80003C98D8CE559854983B983A983D9A3C9AAC
:101F9000D1CE9092B3001092B4008FE295E70197F2
:101FA000F1F700C000008091E2018093B30010922D
:101FB000B400C0CEEFE2F5E73197F1F700C00000C2
:101FC0008091CE011092B3008093B400B3CE07C0CD
:101FD000EFECF7E03197F1F700C0000001970097B0
:101FE000B9F708958093B3006093B40008958FEF1C
:101FF0008093B3008093B4008FEC97E00197F1F7E2
:1020000000C000008FEC97E00197F1F700C00000DE
:102010008FEC97E00197F1F700C000008FEC97E09C
:102020000197F1F700C000008FEC97E00197F1F7FE
:1020300000C000008FEC97E00197F1F700C00000AE
:102040008FEC97E00197F1F700C000008FEC97E06C
:102050000197F1F700C000008FEC97E00197F1F7CE
:1020600000C000008FEC97E00197F1F700C000007E
:102070008FEC97E00197F1F700C000008FEC97E03C
:102080000197F1F700C000008FEC97E00197F1F79E
:1020900000C000008FEC97E00197F1F700C000004E
:1020A0008FEC97E00197F1F700C000000895809150
:1020B000AC0181111EC0F89487E080937C0083E816
:1020C00080937A0080917A00806480937A00809176
:1020D0007A0086FDFCCF8091780090917900109273
:1020E0007C0023EA20937A0021E020937B007894FF
:1020F00008958FEF9FEF08958091AC0181111EC06C
:10210000F89488EC80937C0087E880937A00809133
:102110007A00806480937A0080917A0086FDFCCFFB
:10212000809178009091790010927C0023EA2093AE
:102130007A0021E020937B00789408958FEF9FEF41
:1021400008950F931F93CF93DF93F0E0E0E080E0DA
:1021500006E013E8D3EAC1E0A1E0B0E060E870E097
:10216000F89400937C0010937A0090917A00906428
:1021700090937A0090917A0096FDFCCF20917800A0
:1021800030917900217090917A00906490937A0058
:1021900090917A0096FDFCCF4091780050917900A3
:1021A00010927C00D0937A00C0937B0078944170A9
:1021B000241303C06150710999F6222339F09D015F
:1021C0000E2E01C0220F0A94EAF7822B3196E830D6
:1021D000F10509F0C3CFDF91CF911F910F910895C1
:1021E00020910201822F880F880F880F2827909155
:1021F0001E0181E0890F80931E01822F82958695B2
:102200008770822796959695892780930201089575
:102210008093020108958091AC01811116C0F89459
:1022200086E080937C0083E880937A0080917A0036
:10223000806480937A0080917A0086FDFCCF809143
:10224000780090917900789408958FEF9FEF08952A
:102250002F923F924F925F926F927F928F929F92B6
:10226000AF92BF92CF92DF92EF92FF920F931F93A4
:10227000CF93DF9300D000D000D0CDB7DEB78C0174
:10228000DC0112960D90BC91A02DBE83AD83A438C5
:10229000E3E0BE070CF477C0DC01ED90FC90809188
:1022A000AD019091AE018E159F0508F4B0C12224B6
:1022B0002A940091AF011091B0010E151F0508F48A
:1022C000E0C10091B1011091B2010E151F0508F493
:1022D0003CC20091B3011091B4010E151F0508F422
:1022E0003DC20091B5011091B6010E151F0508F40D
:1022F0003EC20091B7011091B8010E151F0508F4F8
:102300003BC20091B9011091BA010E151F0508F4E6
:1023100040C20091BB011091BC010E151F0508F4CD
:102320003DC20091BD011091BE010E151F0508F4BC
:1023300042C20091BF011091C0010E151F0508F4A3
:102340003FC20091C1011091C2010E151F0508F492
:1023500044C20091C3011091C4010E151F0508F479
:1023600041C20091C5011091C6010E151F0508F468
:1023700042C20091C7011091C8010E151F0508F453
:102380003FC21AE5DFC0FD0180918601909187016F
:102390008A179B0708F426C1609088017090890114
:1023A0006A167B0608F4CDC160908A0170908B019B
:1023B0006A167B0608F4CEC160908C0170908D0186
:1023C0006A167B0608F459C160908E0170908F01E7
:1023D0006A167B0608F4C7C1609090017090910165
:1023E0006A167B0608F4CDC160909201709093014B
:1023F0006A167B0608F4C9C160909401709095013B
:102400006A167B0608F4CFC1609096017090970120
:102410006A167B0608F4CBC1609098017090990110
:102420006A167B0608F4D1C160909A0170909B01F6
:102430006A167B0608F4CDC160909C0170909D01E6
:102440006A167B0608F4D3C160909E0170909F01CC
:102450006A167B0608F4F5C06090A0017090A10197
:102460006DE08DE090E06A167B0608F4EDC080E038
:1024700090E0A0EDB0E489839A83AB83BC832CE029
:10248000E22EF12CF701EE0FFF1FEA57FE4F80817D
:102490009181B301681B790B90E080E00E9476196E
:1024A0009B01AC010E945D186B017C01AD81BE8176
:1024B000BD01BB0F880B990B0E9478194B015C0181
:1024C000B30190E080E00E9476192B013C01298144
:1024D0003A814B815C81C701B6010E94281A9B0199
:1024E000AC01C301B2010E945C189B01AC01C501A3
:1024F000B4010E945C1820E030E040E251E40E9408
:10250000281A0E9440195B01C701B6010E944019B8
:10251000AB01C501BA010E941F18262EED81FE8174
:1025200081E2860FED3BF2400CF472C0D801ED90D1
:10253000FC908091AD019091AE018E159F0508F041
:10254000B8CE10E0BFEF81E2810F2B1609F460C016
:10255000622D70E090E080E00E9476194B015C01F2
:10256000612F70E090E080E00E9476192B013C0121
:10257000ED81FE81BF01FF0F880B990B0E94781936
:102580006B017C01AC019B0160E070E081E694E4AA
:102590000E945C18A50194010E94281A4B015C015D
:1025A00020E030E04FE254E4C701B6010E945C181D
:1025B000A30192010E94281A9B01AC01C501B4013C
:1025C0000E945D1820E030E048E453E40E94CE18F9
:1025D00020E030E044E052E40E945D180E94471978
:1025E000862F16C0AD3BB24094F0D801ED90FC9020
:1025F0008091AD019091AE01212C8E159F0508F0C0
:1026000058CE412C512C320153014201B3CF81E20B
:1026100026960FB6F894DEBF0FBECDBFDF91CF91E7
:102620001F910F91FF90EF90DF90CF90BF90AF90F0
:102630009F908F907F906F905F904F903F902F90E2
:1026400008956CE08CE090E07C01F1E0EF1AF10875
:1026500070E090E080E00E94761920E030E040E0F9
:102660005FE30E94281A20E030E0A9010E945D1873
:1026700069837A838B839C8305CF63E083E090E05A
:10268000E3CF33243394E1E0F0E0EE0FFF1FE55594
:10269000FE4F80819181B801681B790B90E080E04A
:1026A0000E9476199B01AC010E945D184B015C01F0
:1026B000B701FF0C880B990B0E9478192B013C0184
:1026C000B80190E080E00E9476196B017C01632DD7
:1026D00070E090E080E00E94761920E030E040E079
:1026E0005FE30E94281A20E030E0A9010E945D18F3
:1026F000A50194010E94281A9B01AC01C701B601F3
:102700000E945C189B01AC01C301B2010E945C18DD
:1027100020E030E040E251E40E94281A0E94401973
:102720008B01C501B4010E944019AB01C801BA0177
:102730000E941F18162F6F3F09F004CF81E2820D0F
:1027400067CF61E081E090E07FCF82E0382EE2E069
:10275000F0E09BCF62E082E090E076CFB3E03B2EEA
:10276000E3E0F0E092CF64E084E090E06DCFA4E09D
:102770003A2EE4E0F0E089CFF5E03F2EE5E0F0E02E
:1027800084CF65E085E090E05FCF66E086E090E092
:102790005BCFE6E03E2EE6E0F0E077CF77E0372E45
:1027A000E7E0F0E072CF67E087E090E04DCF68E0CF
:1027B00088E090E049CF68E0362EE8E0F0E065CFB1
:1027C00059E0352EE9E0F0E060CF69E089E090E083
:1027D0003BCF6AE08AE090E037CF4AE0342EEAE06F
:1027E000F0E053CF3BE0332EEBE0F0E04ECF6BE078
:1027F0008BE090E029CF2CE0322EECE0F0E045CFEA
:102800009DE0392EEDE0F0E040CF1F920F920FB621
:102810000F9211242F933F934F935F936F937F9366
:102820008F939F93AF93BF93EF93FF938091CC01CE
:102830009091CD012091CA013091CB01820F931F5D
:102840009093CD018093CC018FEF90E09093CB01DA
:102850008093CA018FEF87BD8091A8019091A90153
:10286000A091AA01B091AB010196A11DB11D809369
:10287000A8019093A901A093AA01B093AB01809104
:10288000AC01811123C08091DB019091DC0120918A
:10289000CC013091CD0182179307C0F480912101C2
:1028A0008430A1F4E0910501F091060109950097AB
:1028B00069F00E9485178823D1F0E0910301F0911F
:1028C000040109951092CD011092CC01FF91EF9176
:1028D000BF91AF919F918F917F916F915F914F9138
:1028E0003F912F910F900FBE0F901F9018950E944F
:1028F000E11A9C0133273093CB012093CA0187BD95
:10290000E5CF80FF11C0559A81FF11C0549A82FF14
:1029100011C03B9A83FF11C03A9A84FF11C03D9ABF
:1029200085FD11C03C980895559881FDEFCF5498CE
:1029300082FDEFCF3B9883FDEFCF3A9884FDEFCF38
:102940003D9885FFEFCF3C9A08951F920F920FB6E6
:102950000F9211248F939F93109281001092850003
:102960001092840081E0809385018093C9011092C8
:10297000AC0110927C0093EA90937A0080937B00E4
:102980009F918F910F900FBE0F901F9018951F92DF
:102990000F920FB60F9211242F933F934F935F9393
:1029A0006F937F938F939F93AF93BF93CF93DF9357
:1029B000EF93FF93209184003091850041E0409394
:1029C000AC01809185018823A9F1109285001092B5
:1029D0008400409381001092DD0110928501809166
:1029E000C9018823A1F080917A0086FDFCCF8091F7
:1029F0007800909179009093A7018093A60181E0DF
:102A000080937C0093EA90937A0080937B00FF91FF
:102A1000EF91DF91CF91BF91AF919F918F917F9176
:102A20006F915F914F913F912F910F900FBE0F903B
:102A30001F901895C901875891098437994008F06B
:102A400043C026583109A4EFB0E00E943918AA27E4
:102A5000BB27883008F46FC0409385018091C9017D
:102A6000811146C08091A301E82FF0E0E153FE4FB1
:102A70009091DD0190838F5F8093A3018C3039F6B4
:102A80001092810010928500109284004093C90139
:102A90001092AC01C091D901D091DA018FEC91E094
:102AA0000E94CC16C817D90709F0B1CFE091D80120
:102AB000E7FD52C0E0910701F091080164EA71E07E
:102AC0008FEC91E00995A3CF1092810010928500C0
:102AD00010928400409385014093C9011092AC018B
:102AE00010927C0083EA80937A0040937B008FCF22
:102AF00080917A0086FDFCCF8091780090917900DA
:102B00009093A5018093A40110927C0083EA8093A6
:102B10007A0081E080937B009091DD019923B9F0E8
:102B20001092810010928500109284008093C90158
:102B30001092AC016CCF21E030E001C0220F8A95E9
:102B4000EAF78091DD01822B8093DD0160CF109246
:102B5000C9011092A3015BCF98E79E0F933030F02C
:102B6000539823981092B4001092B300E058EB30C1
:102B700008F04DCFF0E0E154FA4E0C943318CA152A
:102B8000071507159916961692168E16B0169C16EE
:102B9000F915D31580916E008D7F80936E0016BC61
:102BA000E0E0F0E709958091CF01823009F49EC002
:102BB00008F085C0882309F447C0813009F078C047
:102BC0008091D0019091D1019093DF018093DE013B
:102BD00010921F0180912101863009F418CF539A79
:102BE000239A1092B4001092B30086E080932101E2
:102BF0000ECF80912101863099F0539A239A10923A
:102C0000B4001092B300559854983B983A983D9868
:102C10003C9810921F011092200186E080932101C0
:102C20002091CF0181E090E002C0880F991F2A9582
:102C3000E2F72091DE013091DF0182239323892B7B
:102C4000D1F510921F01E3CE80912101863009F069
:102C5000DECE6091DE0180EB90E00E94F91A609177
:102C6000DF0181EB90E00E94F91A6091E20185E0BA
:102C700090E00E94F91A6091CE0189E090E00E94F4
:102C8000F91A6091E0018CE090E00E94F91A6091DD
:102C9000E10184E190E00E94F91A53982398109280
:102CA000B4001092B30081E0809321018091CF01A4
:102CB000811190CFACCE81E080931F01A8CE8330EC
:102CC00009F452C08430A1F720911F018091D501F1
:102CD0009091D4012330C9F01092200123E0209379
:102CE0001F019093E0018093E10174CF90911F0147
:102CF0008091D201913009F445C01092200191E0F9
:102D000090931F018093E20165CF2091E101281388
:102D1000E3CF2091E0012913DFCF5CCF85E08093E2
:102D2000210175CE81E08093210171CE10922101A5
:102D30006ECEF0E0E0E0099580912101833009F446
:102D400066CE80912101843009F461CE539A239A92
:102D50001092B4001092B30083E08093210157CE0B
:102D600082E08093210153CE90911F018091D30185
:102D7000923069F01092200192E090931F018093AD
:102D8000CE0128CF9091E2019813B7CF23CF909135
:102D9000CE019813EFCF1ECFFC0180812FEF3FEFC4
:102DA0002827022E2295207F2025032E322F2295C0
:102DB0002F700226269532272327220F220F220F5B
:102DC000202581812827022E2295207F2025032E71
:102DD000322F22952F700226269532272327220F85
:102DE000220F220F202582812827022E2295207F64
:102DF0002025032E322F22952F700226269532276A
:102E00002327220F220F220F202583812827022E1D
:102E10002295207F2025032E322F22952F70022607
:102E2000269532272327220F220F220F2025848167
:102E30002827022E2295207F2025032E322F22952F
:102E40002F700226269532272327220F220F220FCA
:102E5000202585812827022E2295207F2025032EDC
:102E6000322F22952F700226269532272327220FF4
:102E7000220F220F202586812827022E2295207FCF
:102E80002025032E322F22952F70022626953227D9
:102E90002327220F220F220F202587812827022E89
:102EA0002295207F2025032E322F22952F70022677
:102EB000269532272327220F220F220F20258085D7
:102EC0002827022E2295207F2025032E322F22959F
:102ED0002F700226269532272327220F220F220F3A
:102EE00020254185C9018427082E8295807F802571
:102EF000092E982F82958F70082686959827892706
:102F0000880F880F880F802508950FB6F894A4B114
:102F10002091A2012A2B24B921E03091A201203076
:102F200029F0000025B1232B25B904C000000000C2
:102F3000000000C0000000000000309525B12323F0
:102F400025B92EEA2A95F1F72BEE30B735FF0AC0E6
:102F5000A4B93091A201309525B1232325B90FBE24
:102F600080E0089500002A9581F721E03091A201C8
:102F7000203029F0000025B1232B25B904C0000022
:102F80000000000000C0000000000000309525B1E6
:102F9000232325B9000024E52A95F1F7FC018CE0F4
:102FA000619170E0660F771F616072609AE041E0A6
:102FB00050E09A0126233723232B3091A2012030A1
:102FC00029F0000025B1232B25B904C00000000022
:102FD000000000C0000000000000309525B1232350
:102FE00025B9000021E52A95F1F7440F551F9A9560
:102FF00001F78A95A9F620B7206120BFA4B93091C6
:10300000A201309525B1232325B90FBE81E0089593
:103010000E946E0D8FE590E0909308018093070168
:1030200082EF90E0909306018093050163E178E0E0
:103030008EE191E00E948B0E90E080E0089597FB76
:10304000072E16F4009407D077FD09D00E94481887
:1030500007FC05D03EF4909581959F4F089570959B
:1030600061957F4F0895EE0FFF1F0590F491E02DBD
:103070000994A29FB001B39FC001A39F700D811D51
:103080001124911DB29F700D811D1124911D089571
:10309000AA1BBB1B51E107C0AA1FBB1FA617B7077E
:1030A00010F0A61BB70B881F991F5A95A9F780959A
:1030B0009095BC01CD0108955058BB27AA270E94C6
:1030C00074180C94EE190E94E01938F00E94E71968
:1030D00020F039F49F3F19F426F40C94DD190EF416
:1030E000E095E7FB0C94D719E92F0E94FF1958F3DC
:1030F000BA17620773078407950720F079F4A6F5DD
:103100000C94211A0EF4E0950B2EBA2FA02D0B0172
:10311000B90190010C01CA01A0011124FF27591B1C
:1031200099F0593F50F4503E68F11A16F040A22F22
:10313000232F342F4427585FF3CF46953795279593
:10314000A795F0405395C9F77EF41F16BA0B620B92
:10315000730B840BBAF09150A1F0FF0FBB1F661FD9
:10316000771F881FC2F70EC0BA0F621F731F841F1C
:1031700048F4879577956795B795F7959E3F08F042
:10318000B0CF9395880F08F09927EE0F9795879504
:1031900008950E94B31908F481E008950E94E2188E
:1031A0000C94EE190E94E71958F00E94E01940F0C3
:1031B00029F45F3F29F00C94D71951110C94221A6D
:1031C0000C94DD190E94FF1968F39923B1F355237C
:1031D00091F3951B550BBB27AA276217730784072A
:1031E00038F09F5F5F4F220F331F441FAA1FA9F3C0
:1031F00035D00E2E3AF0E0E832D091505040E695AE
:10320000001CCAF72BD0FE2F29D0660F771F881F0E
:10321000BB1F261737074807AB07B0E809F0BB0B01
:10322000802DBF01FF2793585F4F3AF09E3F510515
:1032300078F00C94D7190C94221A5F3FE4F3983E6F
:10324000D4F3869577956795B795F7959F5FC9F7FE
:10325000880F911D9695879597F90895E1E0660F7F
:10326000771F881FBB1F621773078407BA0720F0F8
:10327000621B730B840BBA0BEE1F88F7E095089561
:103280000E9447196894B1110C94221A08950E9463
:10329000071A88F09F5798F0B92F9927B751B0F0C7
:1032A000E1F0660F771F881F991F1AF0BA95C9F7CA
:1032B00014C0B13091F00E94211AB1E008950C942D
:1032C000211A672F782F8827B85F39F0B93FCCF3E0
:1032D000869577956795B395D9F73EF49095809547
:1032E000709561957F4F8F4F9F4F0895E89409C067
:1032F00097FB3EF490958095709561957F4F8F4F29
:103300009F4F9923A9F0F92F96E9BB279395F6953E
:10331000879577956795B795F111F8CFFAF4BB0FBC
:1033200011F460FF1BC06F5F7F4F8F4F9F4F16C020
:10333000882311F096E911C0772321F09EE8872FAA
:10334000762F05C0662371F096E8862F70E060E066
:103350002AF09A95660F771F881FDAF7880F9695DF
:10336000879597F90895990F0008550FAA0BE0E883
:10337000FEEF16161706E807F907C0F01216130637
:10338000E407F50798F0621B730B840B950B39F477
:103390000A2661F0232B242B252B21F408950A26DD
:1033A00009F4A140A6958FEF811D811D089597F91D
:1033B0009F6780E870E060E008959FEF80EC0895DB
:1033C00000240A9416161706180609060895002404
:1033D0000A9412161306140605060895092E03947E
:1033E000000C11F4882352F0BB0F40F4BF2B11F4F2
:1033F00060FF04C06F5F7F4F8F4F9F4F089557FD51
:103400009058440F551F59F05F3F71F04795880F52
:1034100097FB991F61F09F3F79F0879508951216E9
:1034200013061406551FF2CF4695F1DF08C0161695
:1034300017061806991FF1CF869571056105089446
:103440000895E894BB2766277727CB0197F908955D
:103450000E943B1A0C94EE190E94E01938F00E9469
:10346000E71920F0952311F00C94D7190C94DD196D
:1034700011240C94221A0E94FF1970F3959FC1F336
:10348000950F50E0551F629FF001729FBB27F00D12
:10349000B11D639FAA27F00DB11DAA1F649F662767
:1034A000B00DA11D661F829F2227B00DA11D621FB6
:1034B000739FB00DA11D621F839FA00D611D221F70
:1034C000749F3327A00D611D231F849F600D211D54
:1034D000822F762F6A2F11249F5750409AF0F1F0D7
:1034E00088234AF0EE0FFF1FBB1F661F771F881F40
:1034F00091505040A9F79E3F510580F00C94D71988
:103500000C94221A5F3FE4F3983ED4F386957795A6
:103510006795B795F795E7959F5FC1F7FE2B880FE5
:10352000911D9695879597F908958F929F92AF92E6
:10353000BF92CF92DF92EF92FF92CF93DF93EC0195
:10354000688179818A819B81611571058105910569
:1035500021F464E279ED8BE597E02DE133EF41E072
:1035600050E00E94071B49015A019B01AC01A7EAE8
:10357000B1E40E94261B6B017C01ACEEB4EFA50107
:1035800094010E94341BDC01CB018C0D9D1DAE1DEE
:10359000BF1DB7FF03C00197A109B0488883998375
:1035A000AA83BB839F77DF91CF91FF90EF90DF904D
:1035B000CF90BF90AF909F908F9008950E94951AE2
:1035C000089589E091E00E94951A0895B0E0A0E086
:1035D0008093090190930A01A0930B01B0930C0111
:1035E0000895F999FECF92BD81BDF89A992780B5CB
:1035F0000895262FF999FECF1FBA92BD81BD20BD37
:103600000FB6F894FA9AF99A0FBE01960895052E0E
:1036100097FB1EF400940E941E1B57FD07D00E94CA
:10362000391B07FC03D04EF40C941E1B509540959B
:10363000309521953F4F4F4F5F4F0895909580955E
:10364000709561957F4F8F4F9F4F08950E94391855
:10365000A59F900DB49F900DA49F800D911D1124E6
:103660000895B7FF0C94261B0E94261B821B930B08
:103670000895A1E21A2EAA1BBB1BFD010DC0AA1FB3
:10368000BB1FEE1FFF1FA217B307E407F50720F0CB
:10369000A21BB30BE40BF50B661F771F881F991F46
:1036A0001A9469F760957095809590959B01AC018F
:0A36B000BD01CF010895F894FFCF8B
:1036BA002201AA6D0D6A0D690D01000000000200C9
:0E36CA000002000000000002000000000240AC
:00000001FF
